:100000000C942A000C9447000C9447000C94470071
:100010000C9447000C9447000C9447000C94470044
:100020000C9447000C9447000C9447000C94470034
:100030000C9447000C9447000C9447000C94470024
:100040000C9447000C9447000C9447000C94470014
:100050000C94470011241FBECFE5D4E0DEBFCDBF16
:1000600015E0A0E6B0E0E4E6F5E002C005900D92F0
:10007000AE3AB107D9F715E0AEEAB5E001C01D927E
:10008000A03BB107E1F70E9449000C94B0020C9428
:100090000000EF92FF921F93DF93CF93CDB7DEB7AF
:1000A0002C970FB6F894DEBF0FBECDBF7E0108942B
:1000B000E11CF11CD701E0E6F0E08CE001900D922C
:1000C0008150E1F70E94430280E090EA9093AD05F1
:1000D0008093AC058FEF9FEF9093AF058093AE05B3
:1000E00080E090EA0E94A30049814423B9F010E027
:1000F00080E090E0880F991F880F991F880F991F43
:10010000835D6CE320E00E94D2001F5F812F90E0AE
:10011000F701E80FF91F4081442361F7FFCF1F93D8
:10012000182F892F0E948602812F0E9486021F911C
:1001300008951F93182F892F0E948302812F0E94F8
:1001400083021F9108950F931F93CF93DF938C0128
:100150008FEE0E94830280E90E94830285E00E9464
:10016000830280E00E94830286E00E94830280E096
:100170000E94830287E00E94830280E00E94830243
:10018000C0E0D0E0812F0E948602802F0E9486026C
:1001900021968AE5C03CD807A9F7DF91CF911F913E
:1001A0000F910895CF92DF92EF92FF920F931F93DA
:1001B000CF93DF93E82EF62ED42EC22E8FEE0E9420
:1001C000830280E90E948302CC2009F412C185E0F9
:1001D0000E94830280E00E9483020E2D10E088E0DE
:1001E0000E9483028E2D0E948302EF2CFF248AE05E
:1001F0000E9483028E2D0E948302095F164F812F79
:100200000E948302802F0E9483028DE09BE0E80E13
:10021000F91E8F2D0E9483028E2D0E9483028D2D48
:1002200090E08097880F991F9C01220F331F220FA7
:10023000331F220F331F281B390B8CE6E82E80E07A
:10024000F82EE20EF31EE901C758DF4FDD2463C02C
:10025000F701008107FD65C01091AC058091AD05E7
:100260000E948602812F0E94860206FD65C01091C1
:10027000AC058091AD050E948602812F0E94860206
:1002800005FD65C01091AC058091AD050E94860208
:10029000812F0E94860204FD65C01091AC058091FB
:1002A000AD050E948602812F0E94860203FD65C073
:1002B0001091AC058091AD050E948602812F0E94AD
:1002C000860202FD65C01091AC058091AD050E94CB
:1002D0008602812F0E94860201FD65C01091AC0547
:1002E0008091AD050E948602812F0E94860200FF48
:1002F00065C01091AE058091AF050E948602812FE6
:100300000E948602D3940894E11CF11C2197FEE020
:10031000DF1609F465C0CC2009F09ACF088107FFE9
:100320009BCF1091AE058091AF050E948602812F70
:100330000E94860206FF9BCF1091AE058091AF050B
:100340000E948602812F0E94860205FF9BCF10919A
:10035000AE058091AF050E948602812F0E94860221
:1003600004FF9BCF1091AE058091AF050E948602DD
:10037000812F0E94860203FF9BCF1091AE058091D2
:10038000AF050E948602812F0E94860202FF9BCF4A
:100390001091AE058091AF050E948602812F0E94C8
:1003A000860201FF9BCF1091AE058091AF050E94A0
:1003B0008602812F0E94860200FD9BCF1091AC0522
:1003C0008091AD050E948602812F0E948602D394FF
:1003D0000894E11CF11C2197FEE0DF1609F09BCF89
:1003E000DF91CF911F910F91FF90EF90DF90CF9011
:1003F000089585E00E94830284E00E9483020F2D0D
:1004000010E088E00E9483028F2D0E948302FF2467
:100410008AE00E9483028E2D0E948302035F164FA2
:10042000812F0E948302802F0E948302E7E0FBE07D
:10043000EE0EFF1E8F2D0E9483028E2D0E948302DE
:10044000EECE019708F408950000ACE9BFE01197E3
:10045000F1F7F7CFC298BA9AB99AC39ABB9AC498DF
:10046000BC9AC59AC09AB89A80E58DB981E08EB9D8
:1004700081E090E0E6DFC29A8EB10895859143D085
:100480006A95E1F70895EF93FF93C39ABB9A0E9490
:100490002A02EEE1F5E068E1F1DF87E090E0D1DFEC
:1004A000E6E3F5E068E2EADF82E390E0CADFEEE54A
:1004B000F5E062E0E3DFC3988FEE25D080E923D03A
:1004C00080E021D080E01FD003D0FF91EF9108950C
:1004D000EF93FF938FEE17D080E915D085E013D00E
:1004E00080E011D086E00FD080E00DD087E00BD007
:1004F00080E009D0F5EBE0E88FEF08D03197E9F71D
:10050000FF91EF910895C398C09A02C0C398C09814
:100510006E9A8FB9779BFECF0FB0C39A0895FDFDF9
:10052000FDFDEF00EE041B04FEFEFEFEEF904A040C
:100530007F3FEE044306EF90098308000BAF0A00EB
:10054000050006000700EF00EE0CEF900080EFB012
:100550004902EF007F01E181E202E276E18380015E
:04056000F894FFCF3D
:1005640048656C6C6F20576F726C6400000000006B
:1005740000000000000000000000000000183C3CE7
:100584003C18180018180000006666662400000075
:100594000000000000000000006C6CFE6C6C6CFE3F
:1005A4006C6C00000018187CC6C2C07C0686C67C31
:1005B40018180000000000C2C60C183066C60000FF
:1005C400000000386C6C3876DCCCCC760000001867
:1005D4001818300000000000000000000000000CAB
:1005E400183030303030180C000000000030180C87
:1005F4000C0C0C0C183000000000000000663CFFDE
:100604003C6600000000000000000018187E181866
:10061400000000000000000000000000001818188E
:10062400300000000000000000FE00000000000098
:100634000000000000000000000018180000000086
:100644000002060C183060C0800000000000003872
:100654006CC6C6D6C6C66C380000000000183878D0
:1006640018181818187E00000000007CC6060C1824
:100674003060C6FE00000000007CC606063C06068C
:10068400C67C00000000000C1C3C6CCCFE0C0C1E54
:100694000000000000FEC0C0C0FC0606C67C0000CE
:1006A4000000003860C0C0FCC6C6C67C0000000064
:1006B40000FEC6060C183030303000000000007C0C
:1006C400C6C6C67CC6C6C67C00000000007CC6C682
:1006D400C67E06060C780000000000001818000012
:1006E400001818000000000000001818000000188E
:1006F400183000000000000C183060C06030180C86
:1007040000000000000000007E00007E00000000E9
:100714000000006030180C060C1830600000000067
:10072400007CC6C60C181800181800000000007CD5
:10073400C6C6DEDEDEDCC07C000000000010386CC3
:10074400C6C6FEC6C6C60000000000FC6666667C1F
:10075400666666FC00000000003C66C2C0C0C0C201
:10076400663C0000000000F86C66666666666CF81D
:100774000000000000FE66626878686266FE0000A1
:10078400000000FE66626878686060F000000000A7
:10079400003C66C2C0C0DEC6663A0000000000C667
:1007A400C6C6C6FEC6C6C6C600000000003C181871
:1007B40018181818183C00000000001E0C0C0C0C33
:1007C4000CCCCC780000000000E6666C6C786C6C95
:1007D40066E60000000000F060606060606266FE33
:1007E4000000000000C6EEFED6C6C6C6C6C600009F
:1007F400000000C6E6F6FEDECEC6C6C60000000057
:10080400007CC6C6C6C6C6C6C67C0000000000FC86
:100814006666667C606060F000000000007CC6C60E
:10082400C6C6C6D6DE7C0E00000000FC6666667C8A
:100834006C6666E600000000007CC6C660380CC624
:10084400C67C00000000007E7E5A18181818183C58
:100854000000000000C6C6C6C6C6C6C6C67C0000E8
:10086400000000C6C6C6C6C6C66C3810000000002C
:1008740000C6C6C6C6D6D6FE6C6C0000000000C614
:10088400C6C67C387CC6C6C6000000000066666624
:10089400663C1818183C0000000000FEC68C183096
:1008A40060C2C6FE00000000003C30303030303002
:1008B400303C000000000080C0E070381C0E0602CE
:1008C40000000000003C0C0C0C0C0C0C0C3C000058
:1008D40010386CC60000000000000000000000009A
:1008E4000000000000000000000000FF0030180CB1
:1008F40000000000000000000000000000000000F4
:10090400780C7CCCCC760000000000E06060786C51
:100914006666667C00000000000000007CC6C0C063
:10092400C67C00000000001C0C0C3C6CCCCCCC76CB
:1009340000000000000000007CC6FEC0C67C000071
:100944000000001C3632307C30303078000000006B
:100954000000000076CCCCCC7C0CCC78000000E00D
:1009640060606C76666666E6000000000018180099
:1009740038181818183C00000000000606000E067F
:1009840006060666663C000000E06060666C786CF3
:1009940066E6000000000038181818181818183CEB
:1009A4000000000000000000ECFED6D6D6D6000001
:1009B400000000000000DC66666666660000000059
:1009C400000000007CC6C6C6C67C00000000000013
:1009D4000000DC6666667C6060F0000000000000D9
:1009E40076CCCCCC7C0C0C1E000000000000DC7625
:1009F400666060F000000000000000007CC6701C0F
:100A0400C67C0000000000103030FC303030361C52
:100A14000000000000000000CCCCCCCCCC76000060
:100A2400000000000000C6C6C66C381000000000BC
:100A340000000000C6C6D6D6FE6C00000000000010
:100A44000000C66C38386CC60000000000000000CE
:100A5400C6C6C6C67E060C78000000000000FECCA8
:100A6400183066FE00000000000E181818701818E0
:100A7400180E000000000018181818181818181874
:100A84000000000000701818180E181818700000E4
:100A94000076DC0000000000000000000000000000
:0E0AA40000000010386CC6C6FE000000FFFF08
:00000001FF
